:100000000EEF00F00000000000EF00F00000000024
:0A0010000000000000000000F3D71C
:10001C00070EB46E806A300E926E826A946A0F0E6E
:10002C00C16E836A956A808680AA06D080AA03D0A6
:10003C00010E826EFBD701D0829280A83ED0CF0EEB
:10004C00836E1A0E0B6E5E0E0C6E6E0E0D6E0D2EFA
:10005C00FED70C2EFCD70B2EFAD700005B0E836E4E
:10006C001A0E0B6E5E0E0C6E6E0E0D6E0D2EFED7F6
:10007C000C2EFCD70B2EFAD70000060E836E1A0E30
:10008C000B6E5E0E0C6E6E0E0D6E0D2EFED70C2EC4
:10009C00FCD70B2EFAD700003F0E836E1A0E0B6E98
:1000AC005E0E0C6E6E0E0D6E0D2EFED70C2EFCD74A
:0E00BC000B2EFAD70000826A8096B6D7FFD7C7
:020000040030CA
:0D000100021F1EFF8381FF0FC00FE00F40A4
:00000001FF
