:100000003DEF01F00000000000EF00F000000000F4
:0A0010000000000000000000F3D71C
:0A001C00210E0D6E0D2EFED712000E
:100026000F0E0C6E470E0D6E0D2EFED70C2EFCD746
:06003600000000001200B2
:06003C00000000001200AC
:100042003ABE02D0839E01D0838E3ABC02D0839CFA
:1000520001D0838C3ABA02D0839A01D0838A3AB80B
:1000620002D0839801D0838828B002D0848001D046
:1000720084908482E2DF84923AB602D0839E01D0D9
:10008200838E3AB402D0839C01D0838C3AB202D0E0
:10009200839A01D0838A3AB002D0839801D08388B0
:1000A20028B002D0848001D084908482C6DF8492FA
:0C00B20028A002D0B7DF01D0B0DF1200A0
:1000BE00086A080E0C6E003408360450085ED8B07C
:0E00CE0002D00826D89000360C2EF5D712006E
:0C00DC00289039C03AF0AFDF28801200F5
:1000E800969296909598959A959C959E84928490D0
:1000F800839E839C839A839892DF91DF90DF838A23
:100108008388848297DF84928ADF848293DF849253
:1001180086DF84828FDF849282DF839884828ADFFD
:1001280084927DDF848286DF8492839A838E8482A0
:1001380081DF849274DF839E838884827BDF84924C
:100148008398848277DF84926ADF848273DF849263
:10015800838884826FDF849262DF839884826ADF77
:100168008492838E838C838A8388848263DF8492DB
:0601780056DF2880120092
:10017E000900F5CFE6FF0006FBE10106F9E11200EA
:10018E00366A030E365C0AE236503424E16E000EF7
:10019E003520E26E200EE66E362AF3D73650342422
:1001AE00E16E000E3520E26EE66A360636503424D5
:1001BE00376E000E3520386E0A0E046E33C000F016
:1001CE0077DF08C000F0300E002637C0E1FF38C0E0
:1001DE00E2FF00C0E6FF0A0E046E33C000F068DFD7
:1001EE0000C033F00050000A01E102D03606DED71F
:0201FE001200ED
:100200000FD0800E336E19D0C00E336E16D0940E00
:10021000336E13D0D40E336E10D0800E336E0DD0EB
:100220003350010AEEE03350020AEEE03350030A85
:10023000EEE03350040AEEE0F0D73404006E3350A1
:10024000002600C033F000C03AF0FBDE2890376A89
:1002500037503524E96E000E3620EA6EEE520BE080
:1002600037503524E96E000E3620EA6EEECF39F0B5
:0A02700035DF372AEDD72880120091
:10027A0083EC01F034DF0C0E3A6EDEDE010E3A6ECC
:10028A00DBDE000E261802E1010E25182CE1010E14
:10029A00336E010E346E150E356E000E366EABDF00
:1002AA0027C039F016DF27C033F0290E346E000E4E
:1002BA00356E68DF060E0B6E130E0C6EAD0E0D6EEC
:1002CA000D2EFED70C2EFCD70B2EFAD700000000FD
:1002DA00020E336E0A0E346E290E356E000E366E1D
:0802EA008ADF272ACED7FFD7D7
:1003060010EE15F0130E006E010E016EF20EF66E73
:0E031600020EF76E000EF86EBFEC00F0120043
:1002F200436172616374657220415343494920002E
:020302000000F9
:0103040020D8
:020000040030CA
:0D000100021F1EFF8381FF0FC00FE00F40A4
:00000001FF
