:100000009CEF06F00000000000EF00F00000000090
:0A0010000000000000000000F3D71C
:10001C000F0E0C6E470E0D6E0D2EFED70C2EFCD750
:06002C00000000001200BC
:06003200000000001200B6
:0A003800210E0D6E0D2EFED71200F2
:100042000B840BAE2CEF00F0010E036E026A016A04
:0A005200006A0A360232FF0E1200A7
:10005C00086A096A100E0C6E013408360936045011
:10006C00085E0550D8A0053C095ED8B007D00450F6
:10007C0008260550D8B0053C0926D8900036013624
:06008C000C2EEAD7120061
:100092000B820BAE53EF00F0036802680168006840
:0800A2000A360232FF0E1200C3
:0800AA000AAE029E000E1200D6
:1000B20040BE02D0839E01D0838E40BC02D0839C7E
:1000C20001D0838C40BA02D0839A01D0838A40B88F
:1000D20002D0839801D0838822B002D0848001D0DC
:1000E20084908482A5DF849240B602D0839E01D0A0
:1000F200838E40B402D0839C01D0838C40B202D064
:10010200839A01D0838A40B002D0839801D0838839
:1001120022B002D0848001D08490848289DF8492CC
:0C01220022A002D07ADF01D086DF12009C
:0E012E00026A016A006A086A036A000E120083
:10013C000B800BAEAAEF00F0026A0AAEFF0E026E45
:0C014C00016E006E0A360232FF0E120037
:0C0158000E0E0D6E0D2EFED700001200E2
:100164003D6A050E3D5C0AE23D503B24E16E000E03
:100174003C20E26E200EE66E3D2AF3D73D503B2430
:10018400E16E000E3C20E26EE66A3D063D503B24E3
:100194003E6E000E3C203F6E0A0E046E000E056E8D
:1001A40039C000F03AC001F057DF08C000F009C0C0
:1001B40001F0300E00263EC0E1FF3FC0E2FF00C068
:1001C400E6FF0A0E046E000E056E39C000F03AC058
:1001D40001F042DF00C039F001C03AF0000E01180E
:1001E40002E1000E001801E102D03D06CFD7120053
:0C01F400229039C040F05BDF2280120036
:100200000CB042EF01F00CA2E8EF01F00E6A000E14
:10021000026459EF01F0F00E0214D8A424EF01F0AB
:10022000023A01380F0B02260138F00B016E00383C
:100230000F0B01260038F00B006E08380F0B00265C
:100240000838F00B086E0E84D89002BE3DEF01F026
:1002500008360036013602360E2A02BE3DEF01F0A6
:1002600008360036013602360E2A02BE3DEF01F096
:1002700008360036013602360E2A0E500364DEEFD1
:1002800001F0035E0BBC08AEE3EF01F0D880800EF6
:1002900008640030000E002201220222D8A0E3EF01
:1002A00001F0023201320032034AE8EF01F0E3EFDD
:1002B00001F001C002F000C001F008C000F0086ABF
:1002C000000E0E86026490EF01F0F00E0214D8A426
:1002D00078EF01F0023A01380F0B02260138F00BDB
:1002E000016E00380F0B01260038F00B006E0E84F3
:1002F000D89002BE3DEF01F00036013602360E2ADC
:1003000002BE3DEF01F00036013602360E2A02BE73
:100310003DEF01F00036013602360E2A3DEF01F0C6
:1003200001C002F000C001F0006A000E0E960E88B7
:100330000264BDEF01F0F00E0214D8A4A8EF01F0A2
:10034000023A01380F0B02260138F00B016E0E84C1
:10035000D89002BE3DEF01F0013602360E2A02BEF1
:100360003DEF01F0013602360E2A02BE3DEF01F0EC
:10037000013602360E2A3DEF01F001C002F0016A9B
:10038000000E0E860264EDEF01F0F00E0214D8A408
:10039000CCEF01F0023A0E84D89002BE3DEF01F09E
:1003A00002360E2A02BE3DEF01F002360E2A02BED0
:1003B0003DEF01F002360E2A3DEF01F0010E0C6E0A
:1003C00040DEF0EF01F0020E0C6E6FDEF0EF01F098
:1003D000040E0C6E5EDEF0EF01F0080E0C6EA7DE70
:0203E000120009
:1003E2000C6A0E6A0250D8A40AEF02F001C002F0B1
:1003F20000C001F0006A0E860250D8A40AEF02F093
:1004020001C002F0016A0E960E880250D8B41CEFA9
:1004120002F00E50035ED8A4D8A021EF02F0D890CB
:1004220002BE26EF02F0003601360236032E11EF2D
:1004320002F021EF02F0010E0C6E78DE29EF02F0DD
:10044200020E0C6EFDDD29EF02F0040E0C6E2CDEA6
:02045200120096
:10045400C26A191C006E0050C116070EC012C08E6D
:100464002FC000F000360090003600900050C212F9
:10047400C28070DEC282C2A201D0FDD7C4CF01F017
:0E048400006AC3500012000E0112C290120056
:10049200316A31502F24E96E000E3020EA6EEE529E
:1004A2000BE031502F24E96E000E3020EA6EEECFC1
:0A04B20039F09FDE312AEDD7120069
:1004BC000900F5CFE6FF0006FBE10106F9E11200A9
:1004CC00FF0E2B6EFF0E2C6EFF0E2D6EFF0E2E6E82
:1004DC00C26A191C006E0050C116070EC012C08EE5
:0404EC00C2801200B8
:1004F000969296909598959A959C959E84928490C4
:10050000839E839C839A839889DD88DD87DD838A37
:10051000838884828EDD849281DD84828ADD849268
:100520007DDD848286DD849279DD8398848281DD1D
:10053000849274DD84827DDD8492839A838E8482AA
:1005400078DD84926BDD839E8388848272DD849261
:10055000839884826EDD849261DD84826ADD849278
:100560008388848266DD849259DD8398848261DD8C
:100570008492838E838C838A838884825ADD8492DA
:060580004DDD2280120097
:1005860000C008F00150006E016A026A036A0B6A35
:100596000C6A016A026A036A960E036E0A6A00AE64
:1005A600DBEF02F0081E001E082AD8B4002A0A8EC5
:1005B60000C001F008C000F0086A026A0FDF1200EE
:1005C600086A096A000E0762036468EF03F00250C6
:1005D60006180A6E075003267E0ED8A0F9EF02F021
:1005E600035ED8B06CEF03F0FDEF02F0035ED8A017
:1005F60070EF03F0028E068E02C00EF001C00BF003
:1006060000C00DF000500402F4CF0CF001500502BA
:10061600F4CF00F0F3CF08F00402F3500C26F450A8
:100626000822000E00220D500502F3500C26F4504D
:100636000822000E002202500402F3500826F4504D
:10064600002202500502016A000E0122F350002624
:10065600F45001220D500602F3500826F4500022F1
:10066600026A000E012202220B500602F3500026F7
:10067600F4500122000E02220E500602F35001260B
:10068600F450022202BE50EF03F00836003601365F
:1006960002360306D8B470EF03F063EF03F0D88098
:1006A600800E08640030000E002201220222D8A02B
:1006B60063EF03F0023201320032034A6CEF03F0BB
:1006C6000AAE029E000E72EF03F0010E2DDD72EFF0
:1006D60003F0020EDBDC72EF03F0040EAFDC120057
:1006E600025006180E6E086A096A0B6A0350076400
:1006F60066EF04F006500A6E068E028E03500B6EED
:100706000750036E000E0B64B6EF03F00B50075E46
:10071600D8B457EF04F0070E076425EF04F0075E20
:1007260000C008F001C000F002C001F0026A074EE6
:1007360057EF04F00764FAEF03F0075E00C008F015
:1007460001C000F0016A074E57EF04F00764D8EFC6
:1007560003F0075E00C008F0006A074E57EF04F08A
:100766000764BFEF03F00AC002F005C001F004C041
:1007760000F0086A83EF05F0030E0764CAEF03F082
:10078600075E08380F0B086E074E57EF04F0D89037
:100796000832074E57EF04F0D8900832074E57EF4D
:1007A60004F0D890083257EF04F0030E0764E9EF1F
:1007B60003F0075E08380F0B086E0038F00B0826AA
:1007C60000380F0B006E074E57EF04F0D89000323A
:1007D6000832074E57EF04F0D89000320832074E21
:1007E60057EF04F0D8900032083257EF04F0030EAA
:1007F600076411EF04F0075E08380F0B086E003827
:10080600F00B082600380F0B006E0138F00B00269F
:1008160001380F0B016E074E57EF04F0D8900132E6
:1008260000320832074E57EF04F0D89001320032FA
:100836000832074E57EF04F0D890013200320832E2
:1008460057EF04F0030E076442EF04F0075E083822
:100856000F0B086E0038F00B082600380F0B006EE1
:100866000138F00B002601380F0B016E0238F00B31
:10087600012602380F0B026E074E57EF04F0D89090
:100886000232013200320832074E57EF04F0D89098
:100896000232013200320832074E57EF04F0D89088
:1008A6000232013200320832096A000E0EAE4BEFF8
:1008B60005F0081E001E011E021E082A0022012243
:1008C60002224BEF05F00750D8A46CEF04F083EF3B
:1008D60005F0096A02C00AF0028E068E0750035C14
:1008E600076ED8B43EEF05F0070E07640CEF05F06F
:1008F600075E0450096E0550046E0650056E066AC2
:10090600074E3EEF05F0070E0764E1EF04F0075EC1
:100916000450096E0550046E056A074E3EEF05F059
:10092600070E0764BFEF04F0075E0450096E046A01
:10093600074E3EEF05F0070E0764A6EF04F00AC067
:1009460002F083EF05F0030E0764B1EF04F0075ED3
:1009560009380F0B096E074E3EEF05F0D8900932A5
:10096600074E3EEF05F0D8900932074E3EEF05F0F0
:10097600D89009323EEF05F0030E0764D0EF04F07D
:10098600075E09380F0B096E0438F00B0926043888
:100996000F0B046E074E3EEF05F0D8900432093275
:1009A600074E3EEF05F0D89004320932074E3EEF6F
:1009B60005F0D890043209323EEF05F0030E0764C5
:1009C600F8EF04F0075E09380F0B096E0438F00BD8
:1009D600092604380F0B046E0538F00B042605387B
:1009E6000F0B056E074E3EEF05F0D8900532043228
:1009F6000932074E3EEF05F0D8900532043209322F
:100A0600074E3EEF05F0D8900532043209323EEF2C
:100A160005F0030E076429EF05F0075E09380F0B92
:100A2600096E0438F00B092604380F0B046E0538DE
:100A3600F00B042605380F0B056E0638F00B05265D
:100A460006380F0B066E074E3EEF05F0D8900632BD
:100A5600053204320932074E3EEF05F0D8900632D1
:100A6600053204320932074E3EEF05F0D8900632C1
:100A7600053204320932086A000E0EAE4BEF05F05D
:100A8600091E041E051E061E092A04220522062228
:100A96000950082604500022055001220650022261
:100AA6000EBE62EF05F0D8A071EF05F002320132FA
:100AB60000320832033E71EF05F07DEF05F0D8B045
:100AC60077EF05F0000E081E001E011E021E082A02
:100AD6000022012202220A7E77EF05F0010E0C6E3B
:100AE60000EC01F085EF05F0020E0C6E00EC01F053
:100AF60085EF05F0040E0C6E49EC00F085EF05F06D
:060B0600000E0C6E12004F
:100B0C00356A366A2FC037F030C038F0800E301896
:100B1C00006E800E005C02E1000E2F5C0BE2010EF9
:100B2C00356E000E366E2F500008376E30C038F020
:100B3C00000E385637C039F038C03AF031C03BF0AF
:100B4C0032C03CF0B2EC00F0060E336E000E346E88
:100B5C00000E006E3450005C02E13350000819E2C4
:100B6C0033503124E16E34503220E26E010E335C8E
:100B7C00006E000E3458016E00503124E96E0150A5
:100B8C003220EA6EEECFE6FF010E335E000E345AD1
:100B9C00DFD731C0E1FF32C0E2FF200EE66E3550E8
:100BAC0036101AE0336A346A33503124E96E34500B
:100BBC003220EA6EEE50200A03E1334A342AF4D78D
:100BCC00010E335E000E345A33503124E16E345032
:0A0BDC003220E26E2D0EE66E1200CC
:100BE6000B6A0350D8B439EF06F002500A6E028E33
:100BF6008E0E035E03AE3DEF06F0036C080E035C3B
:100C0600D8A018EF06F0036E013602C001F0026AA2
:100C1600080E035CD8A018EF06F0036E0136016AD1
:100C26000350D8A4D89022EF06F00350D8B422EF90
:100C360006F0D89002320132032E1CEF06F00BBCF0
:100C460001A02FEF06F0D8A02FEF06F0012AD8B4A6
:100C5600022A02BE4CEF06F00AAE52EF06F0021E62
:100C6600011E012AD8B4022A52EF06F0026A016A6E
:100C760052EF06F00B800BAE56EF06F0026A0AAE94
:100C860056EF06F0FF0E026E016E0A36023256EF7E
:100C960006F0010E0C6E9EEC00F058EF06F0000E0A
:100CA6000C6E58EF06F0FF0E0C6E0150006E0250EF
:040CB600016E1200B9
:100CBA000FD0800E2F6E19D0C00E2F6E16D0940E44
:100CCA002F6E13D0D40E2F6E10D0800E2F6E0DD033
:100CDA002F50010AEEE02F50020AEEE02F50030ACD
:100CEA00EEE02F50040AEEE0F0D73004006E2F50E9
:100CFA00002600C02FF000C040F059EC00F022900E
:100D0A00336A33503124E96E000E3220EA6EEE5215
:100D1A000CE033503124E96E000E3220EA6EEECF39
:0E0D2A0039F0FAEC00F0332AECD722801200E8
:100D3800F2EC06F0806A010E926E070EB46E0E0E8B
:100D4800C16EF16A66EC02F078EC02F00C0E406EAF
:100D580059EC00F0010E406E59EC00F02F6A2AECB5
:100D680002F000C017F001C018F009DC630E046E31
:100D7800EE0E056E7A0E066E7D0E076E20DC0C0EEA
:100D8800046E930E056E490E066E7D0E076EA7DC87
:100D980026DF00C015F001C016F000C02FF001C01A
:100DA80030F0230E316E000E326EACDE010E2F6E67
:100DB800010E306E1A0E316E000E326E7ADF230E7F
:0E0DC8002F6E000E306E49EC02F0C8D7FFD738
:100DE40010EE15F00D0E006E010E016ED60EF66EAD
:0E0DF4000D0EF76E000EF86E5EEC02F01200AF
:020DD60000001B
:020DD800000019
:010DDA0030E8
:080DDB0056616C6F72203D00AF
:020000040030CA
:0D000100021F1EFF8381FF0FC00FE00F40A4
:00000001FF
